:100000000C9434000C9451000C9451000C94510049
:100010000C9451000C9451000C9451000C9451001C
:100020000C9451000C9451000C9451000C9451000C
:100030000C9451000C9451000C9451000C945100FC
:100040000C9451000C9451000C9451000C945100EC
:100050000C9451000C9451000C9451000C945100DC
:100060000C9451000C94510011241FBECFEFD8E026
:10007000DEBFCDBF11E0A0E0B1E0E2EBF3E002C0F3
:1000800005900D92A035B107D9F711E0A0E5B1E0D8
:1000900001C01D92A635B107E1F70E9453000C94F0
:1000A000D7010C940000CF93DF93CDB7DEB76E97E6
:1000B0000FB6F894DEBF0FBECDBF65E270E0CE0193
:1000C00001960E949600CE010B9668E270E00E94B5
:1000D0009600CE0145966BE270E00E94960041E0EA
:1000E00065E070E0CE0101960E94B30041E064E05B
:1000F00070E0CE0101960E94B300CE010B9641E064
:1001000060E070E00E94B300CE010B9641E062E037
:1001100070E00E94B30080E090E06E960FB6F89415
:10012000DEBF0FBECDBFDF91CF910895CF93DF9398
:1001300000D000D0CDB7DEB79A8389837C836B83F0
:1001400089819A8121E0FC01228389819A812B8116
:100150003C81FC01318320830F900F900F900F9012
:10016000DF91CF910895CF93DF9300D000D01F92FD
:10017000CDB7DEB79A8389837C836B834D83898176
:100180009A81FC018281882309F4D8C089819A81EF
:10019000FC0180819181FC01208185E290E0FC01DD
:1001A000908181E0291709F080E08823A9F184E299
:1001B00090E024E230E0F9012081422F21E030E09C
:1001C0000B8002C0220F331F0A94E2F7242BFC019C
:1001D00020838D81882399F085E290E025E230E04C
:1001E000F9012081422F21E030E00B8002C0220F74
:1001F000331F0A94E2F7242BFC01208308C085E218
:1002000090E0FC01808185E290E0FC011082898110
:100210009A8121E0FC01238389819A81FC018081FC
:100220009181FC01208188E290E0FC01908181E0D5
:10023000291709F080E08823A9F187E290E027E2FE
:1002400030E0F9012081422F21E030E00B8002C034
:10025000220F331F0A94E2F7242BFC0120838D81A7
:10026000882399F088E290E028E230E0F9012081CB
:10027000422F21E030E00B8002C0220F331F0A948E
:10028000E2F7242BFC01208308C088E290E0FC0107
:10029000808188E290E0FC01108289819A8121E0CE
:1002A000FC01238389819A81FC0180819181FC0179
:1002B00020818BE290E0FC01908181E0291709F018
:1002C00080E08823B1F18AE290E02AE230E0F9018F
:1002D0002081422F21E030E00B8002C0220F331F2B
:1002E0000A94E2F7242BFC0120838D81882399F066
:1002F0008BE290E02BE230E0F9012081422F21E0F7
:1003000030E00B8002C0220F331F0A94E2F7242B47
:10031000FC01208308C08BE290E0FC0180818BE22D
:1003200090E0FC01108289819A8121E0FC01238305
:1003300009C080E091E00E94AA0104C089E291E036
:100340000E94AA010F900F900F900F900F90DF91D5
:10035000CF9108950F931F93CF93DF93E0915201B4
:10036000F0915301238121FF1BC0EC0100E010E05C
:1003700089916091520170915301DB011896ED91C2
:10038000FC911997882331F00995892B89F30FEF98
:100390001FEFEECF8AE00995892B11F4C80102C046
:1003A0008FEF9FEFDF91CF911F910F910895F894F8
:0203B000FFCF7D
:1003B2007375636820706F727420646F65736E2743
:1003C20074206578697374206F6E20746869732075
:1003D200706C6174666F726D00596F75206D757304
:1003E200742066697273742063726561746520613A
:1003F20020706F727420696E7374616E63650000A1
:00000001FF
